{
  "contractName": "Faucet",
  "abi": [
    {
      "inputs": [
        {
          "internalType": "address",
          "name": "",
          "type": "address"
        }
      ],
      "name": "funders",
      "outputs": [
        {
          "internalType": "bool",
          "name": "",
          "type": "bool"
        }
      ],
      "stateMutability": "view",
      "type": "function",
      "constant": true
    },
    {
      "inputs": [],
      "name": "numOfFunders",
      "outputs": [
        {
          "internalType": "uint256",
          "name": "",
          "type": "uint256"
        }
      ],
      "stateMutability": "view",
      "type": "function",
      "constant": true
    },
    {
      "inputs": [],
      "name": "owner",
      "outputs": [
        {
          "internalType": "address",
          "name": "",
          "type": "address"
        }
      ],
      "stateMutability": "view",
      "type": "function",
      "constant": true
    },
    {
      "inputs": [],
      "name": "test3",
      "outputs": [
        {
          "internalType": "uint256",
          "name": "",
          "type": "uint256"
        }
      ],
      "stateMutability": "pure",
      "type": "function",
      "constant": true
    },
    {
      "inputs": [],
      "name": "testNum",
      "outputs": [
        {
          "internalType": "uint256",
          "name": "",
          "type": "uint256"
        }
      ],
      "stateMutability": "view",
      "type": "function",
      "constant": true
    },
    {
      "stateMutability": "payable",
      "type": "receive",
      "payable": true
    },
    {
      "inputs": [],
      "name": "emitLog",
      "outputs": [
        {
          "internalType": "bytes32",
          "name": "",
          "type": "bytes32"
        }
      ],
      "stateMutability": "pure",
      "type": "function",
      "constant": true
    },
    {
      "inputs": [],
      "name": "addFunds",
      "outputs": [],
      "stateMutability": "payable",
      "type": "function",
      "payable": true
    },
    {
      "inputs": [],
      "name": "test1",
      "outputs": [],
      "stateMutability": "nonpayable",
      "type": "function"
    },
    {
      "inputs": [],
      "name": "test2",
      "outputs": [],
      "stateMutability": "nonpayable",
      "type": "function"
    },
    {
      "inputs": [
        {
          "internalType": "uint256",
          "name": "withdrawAmount",
          "type": "uint256"
        }
      ],
      "name": "withdraw",
      "outputs": [],
      "stateMutability": "nonpayable",
      "type": "function"
    },
    {
      "inputs": [],
      "name": "getAllFunders",
      "outputs": [
        {
          "internalType": "address[]",
          "name": "",
          "type": "address[]"
        }
      ],
      "stateMutability": "view",
      "type": "function",
      "constant": true
    },
    {
      "inputs": [
        {
          "internalType": "uint8",
          "name": "index",
          "type": "uint8"
        }
      ],
      "name": "getFunderAtIdx",
      "outputs": [
        {
          "internalType": "address",
          "name": "",
          "type": "address"
        }
      ],
      "stateMutability": "view",
      "type": "function",
      "constant": true
    }
  ],
  "bytecode": "0x608060405234801561001057600080fd5b50336000806101000a81548173ffffffffffffffffffffffffffffffffffffffff021916908373ffffffffffffffffffffffffffffffffffffffff1602179055506103e8600181905550610c5e806100696000396000f3fe6080604052600436106100ab5760003560e01c80636fbbb55d116100645780636fbbb55d146101b35780638da5cb5b146101de578063a26759cb14610209578063ae28f1ed14610213578063af7f2c9b1461023e578063f42c13bf14610269576100b2565b8063031b3677146100b7578063080e9e97146100f45780630a8e8e01146101315780632e1a7d4d1461015c57806366e41cb7146101855780636b59084d1461019c576100b2565b366100b257005b600080fd5b3480156100c357600080fd5b506100de60048036038101906100d99190610789565b610294565b6040516100eb91906107d1565b60405180910390f35b34801561010057600080fd5b5061011b60048036038101906101169190610825565b6102b4565b6040516101289190610861565b60405180910390f35b34801561013d57600080fd5b506101466102f4565b6040516101539190610895565b60405180910390f35b34801561016857600080fd5b50610183600480360381019061017e91906108dc565b6102fd565b005b34801561019157600080fd5b5061019a610394565b005b3480156101a857600080fd5b506101b1610424565b005b3480156101bf57600080fd5b506101c86104b4565b6040516101d591906109c7565b60405180910390f35b3480156101ea57600080fd5b506101f36105ae565b6040516102009190610861565b60405180910390f35b6102116105d2565b005b34801561021f57600080fd5b506102286106f2565b6040516102359190610895565b60405180910390f35b34801561024a57600080fd5b506102536106f8565b6040516102609190610895565b60405180910390f35b34801561027557600080fd5b5061027e6106fe565b60405161028b9190610a02565b60405180910390f35b60036020528060005260406000206000915054906101000a900460ff1681565b6000600460008360ff16815260200190815260200160002060009054906101000a900473ffffffffffffffffffffffffffffffffffffffff169050919050565b60006064905090565b8067016345785d8a0000811115610349576040517f08c379a000000000000000000000000000000000000000000000000000000000815260040161034090610aa0565b60405180910390fd5b3373ffffffffffffffffffffffffffffffffffffffff166108fc839081150290604051600060405180830381858888f1935050505015801561038f573d6000803e3d6000fd5b505050565b3373ffffffffffffffffffffffffffffffffffffffff1660008054906101000a900473ffffffffffffffffffffffffffffffffffffffff1673ffffffffffffffffffffffffffffffffffffffff1614610422576040517f08c379a000000000000000000000000000000000000000000000000000000000815260040161041990610b32565b60405180910390fd5b565b3373ffffffffffffffffffffffffffffffffffffffff1660008054906101000a900473ffffffffffffffffffffffffffffffffffffffff1673ffffffffffffffffffffffffffffffffffffffff16146104b2576040517f08c379a00000000000000000000000000000000000000000000000000000000081526004016104a990610b32565b60405180910390fd5b565b6060600060025467ffffffffffffffff8111156104d4576104d3610b52565b5b6040519080825280602002602001820160405280156105025781602001602082028036833780820191505090505b50905060005b6002548110156105a6576004600082815260200190815260200160002060009054906101000a900473ffffffffffffffffffffffffffffffffffffffff1682828151811061055957610558610b81565b5b602002602001019073ffffffffffffffffffffffffffffffffffffffff16908173ffffffffffffffffffffffffffffffffffffffff1681525050808061059e90610bdf565b915050610508565b508091505090565b60008054906101000a900473ffffffffffffffffffffffffffffffffffffffff1681565b6000339050600360008273ffffffffffffffffffffffffffffffffffffffff1673ffffffffffffffffffffffffffffffffffffffff16815260200190815260200160002060009054906101000a900460ff166106ef5760006002600081548092919061063d90610bdf565b9190505590506001600360008473ffffffffffffffffffffffffffffffffffffffff1673ffffffffffffffffffffffffffffffffffffffff16815260200190815260200160002060006101000a81548160ff021916908315150217905550816004600083815260200190815260200160002060006101000a81548173ffffffffffffffffffffffffffffffffffffffff021916908373ffffffffffffffffffffffffffffffffffffffff160217905550505b50565b60015481565b60025481565b60007f48656c6c6f7720576f726c642100000000000000000000000000000000000000905090565b600080fd5b600073ffffffffffffffffffffffffffffffffffffffff82169050919050565b60006107568261072b565b9050919050565b6107668161074b565b811461077157600080fd5b50565b6000813590506107838161075d565b92915050565b60006020828403121561079f5761079e610726565b5b60006107ad84828501610774565b91505092915050565b60008115159050919050565b6107cb816107b6565b82525050565b60006020820190506107e660008301846107c2565b92915050565b600060ff82169050919050565b610802816107ec565b811461080d57600080fd5b50565b60008135905061081f816107f9565b92915050565b60006020828403121561083b5761083a610726565b5b600061084984828501610810565b91505092915050565b61085b8161074b565b82525050565b60006020820190506108766000830184610852565b92915050565b6000819050919050565b61088f8161087c565b82525050565b60006020820190506108aa6000830184610886565b92915050565b6108b98161087c565b81146108c457600080fd5b50565b6000813590506108d6816108b0565b92915050565b6000602082840312156108f2576108f1610726565b5b6000610900848285016108c7565b91505092915050565b600081519050919050565b600082825260208201905092915050565b6000819050602082019050919050565b61093e8161074b565b82525050565b60006109508383610935565b60208301905092915050565b6000602082019050919050565b600061097482610909565b61097e8185610914565b935061098983610925565b8060005b838110156109ba5781516109a18882610944565b97506109ac8361095c565b92505060018101905061098d565b5085935050505092915050565b600060208201905081810360008301526109e18184610969565b905092915050565b6000819050919050565b6109fc816109e9565b82525050565b6000602082019050610a1760008301846109f3565b92915050565b600082825260208201905092915050565b7f43616e6e6f74207769746864726177206d6f7265207468616e20302e3120657460008201527f6865720000000000000000000000000000000000000000000000000000000000602082015250565b6000610a8a602383610a1d565b9150610a9582610a2e565b604082019050919050565b60006020820190508181036000830152610ab981610a7d565b9050919050565b7f4f6e6c7920746865206f776e65722063616e2063616c6c20746869732066756e60008201527f6374696f6e000000000000000000000000000000000000000000000000000000602082015250565b6000610b1c602583610a1d565b9150610b2782610ac0565b604082019050919050565b60006020820190508181036000830152610b4b81610b0f565b9050919050565b7f4e487b7100000000000000000000000000000000000000000000000000000000600052604160045260246000fd5b7f4e487b7100000000000000000000000000000000000000000000000000000000600052603260045260246000fd5b7f4e487b7100000000000000000000000000000000000000000000000000000000600052601160045260246000fd5b6000610bea8261087c565b91507fffffffffffffffffffffffffffffffffffffffffffffffffffffffffffffffff821415610c1d57610c1c610bb0565b5b60018201905091905056fea2646970667358221220954b309189e70b8ac4ac882df4f51cabc0c226c43f959161da4faed8c1e7b82b64736f6c634300080b0033",
  "immutableReferences": {},
  "source": "// SPDX-License-Identifier: MIT\npragma solidity >=0.4.22 <0.9.0;\nimport \"./Owned.sol\";\nimport \"./Logger.sol\";\nimport \"./IFaucet.sol\";\n\ncontract Faucet is Owned, Logger, IFaucet {\n  uint public numOfFunders; \n\n  mapping(address => bool) public funders; \n  mapping(uint => address) private lutFunders;\n\n  modifier limitWithdraw(uint withdrawAmount) {\n    require(withdrawAmount <= 100000000000000000, \"Cannot withdraw more than 0.1 ether\");\n    _;\n  }\n\n  receive() external payable {}\n\n  function emitLog() public override pure returns(bytes32) {\n    return \"Hellow World!\";\n  }\n\n  function addFunds() override external payable {\n    address funder = msg.sender; \n\n    if(!funders[funder]) {\n      uint index = numOfFunders++;\n      funders[funder] = true;\n      lutFunders[index] = funder;\n    } \n  } \n\n  function test1() external onlyOwner{\n    // some managing stuff that only admin should have access to\n  }  \n  \n  function test2() external onlyOwner{\n    // some managing stuff that only admin should have access to\n  }\n\n  function withdraw(uint withdrawAmount) override external limitWithdraw(withdrawAmount) { \n    payable(msg.sender).transfer(withdrawAmount); \n  }\n\n  function getAllFunders() public view returns(address[] memory) { \n    address[] memory _funders = new address[](numOfFunders);\n\n    for(uint i = 0; i < numOfFunders; i++) {\n      _funders[i] = lutFunders[i];\n    } \n\n    return _funders;\n  }\n\n  function getFunderAtIdx(uint8 index) external view returns(address) {\n    return lutFunders[index];\n  } \n}",
  "sourcePath": "/home/lucky/Desktop/Projects/info/13 blockchain/00 Solidity & Ethereum in React/projects/faucet/contracts/FaucetContract.sol",
  "compiler": {
    "name": "solc",
    "version": "0.8.11+commit.d7f03943.Emscripten.clang"
  },
  "schemaVersion": "3.4.4",
  "updatedAt": "2022-03-17T15:53:08.755Z",
  "networkType": "ethereum",
  "devdoc": {
    "kind": "dev",
    "methods": {},
    "version": 1
  },
  "userdoc": {
    "kind": "user",
    "methods": {},
    "version": 1
  }
}