{
  "contractName": "Storage",
  "abi": [
    {
      "inputs": [],
      "stateMutability": "nonpayable",
      "type": "constructor"
    },
    {
      "inputs": [],
      "name": "a",
      "outputs": [
        {
          "internalType": "uint8",
          "name": "",
          "type": "uint8"
        }
      ],
      "stateMutability": "view",
      "type": "function",
      "constant": true
    },
    {
      "inputs": [
        {
          "internalType": "uint256",
          "name": "",
          "type": "uint256"
        }
      ],
      "name": "aa",
      "outputs": [
        {
          "internalType": "uint256",
          "name": "",
          "type": "uint256"
        }
      ],
      "stateMutability": "view",
      "type": "function",
      "constant": true
    },
    {
      "inputs": [],
      "name": "b",
      "outputs": [
        {
          "internalType": "uint16",
          "name": "",
          "type": "uint16"
        }
      ],
      "stateMutability": "view",
      "type": "function",
      "constant": true
    },
    {
      "inputs": [
        {
          "internalType": "address",
          "name": "",
          "type": "address"
        }
      ],
      "name": "bb",
      "outputs": [
        {
          "internalType": "uint256",
          "name": "",
          "type": "uint256"
        }
      ],
      "stateMutability": "view",
      "type": "function",
      "constant": true
    },
    {
      "inputs": [],
      "name": "c",
      "outputs": [
        {
          "internalType": "address",
          "name": "",
          "type": "address"
        }
      ],
      "stateMutability": "view",
      "type": "function",
      "constant": true
    },
    {
      "inputs": [
        {
          "internalType": "uint256",
          "name": "",
          "type": "uint256"
        }
      ],
      "name": "cc",
      "outputs": [
        {
          "internalType": "uint256",
          "name": "",
          "type": "uint256"
        }
      ],
      "stateMutability": "view",
      "type": "function",
      "constant": true
    },
    {
      "inputs": [],
      "name": "e",
      "outputs": [
        {
          "internalType": "uint64",
          "name": "",
          "type": "uint64"
        }
      ],
      "stateMutability": "view",
      "type": "function",
      "constant": true
    },
    {
      "inputs": [],
      "name": "f",
      "outputs": [
        {
          "internalType": "uint256",
          "name": "",
          "type": "uint256"
        }
      ],
      "stateMutability": "view",
      "type": "function",
      "constant": true
    },
    {
      "inputs": [],
      "name": "g",
      "outputs": [
        {
          "internalType": "uint8",
          "name": "",
          "type": "uint8"
        }
      ],
      "stateMutability": "view",
      "type": "function",
      "constant": true
    },
    {
      "inputs": [],
      "name": "g1",
      "outputs": [
        {
          "internalType": "uint8",
          "name": "",
          "type": "uint8"
        }
      ],
      "stateMutability": "view",
      "type": "function",
      "constant": true
    },
    {
      "inputs": [],
      "name": "g2",
      "outputs": [
        {
          "internalType": "uint8",
          "name": "",
          "type": "uint8"
        }
      ],
      "stateMutability": "view",
      "type": "function",
      "constant": true
    },
    {
      "inputs": [],
      "name": "h",
      "outputs": [
        {
          "internalType": "uint256",
          "name": "",
          "type": "uint256"
        }
      ],
      "stateMutability": "view",
      "type": "function",
      "constant": true
    }
  ],
  "bytecode": "0x60806040526007600360006101000a81548160ff021916908360ff160217905550600a600360016101000a81548161ffff021916908361ffff1602179055507396a09c03c69ab2cb063f2d94ec98341e6a0c36c66003806101000a81548173ffffffffffffffffffffffffffffffffffffffff021916908373ffffffffffffffffffffffffffffffffffffffff1602179055506001600360176101000a81548160ff021916908315150217905550600f600360186101000a81548167ffffffffffffffff021916908367ffffffffffffffff16021790555060c86004556028600560006101000a81548160ff021916908360ff1602179055506028600560016101000a81548160ff021916908360ff1602179055506028600560026101000a81548160ff021916908360ff16021790555061031560065534801561014257600080fd5b506002600190806001815401808255809150506001900390600052602060002001600090919091909150556002600a908060018154018082558091505060019003906000526020600020016000909190919091505560026064908060018154018082558091505060019003906000526020600020016000909190919091505560046000806002815260200190815260200160002081905550600a60008060038152602001908152602001600020819055506064600160007396a09c03c69ab2cb063f2d94ec98341e6a0c36c673ffffffffffffffffffffffffffffffffffffffff1673ffffffffffffffffffffffffffffffffffffffff1681526020019081526020016000208190555061057f8061025b6000396000f3fe608060405234801561001057600080fd5b50600436106100b45760003560e01c8063bdd8a36611610071578063bdd8a3661461017f578063c3da42b81461019d578063e1d9bbbd146101bb578063e2179b8e146101eb578063eb366c1314610209578063ffae15ba14610239576100b4565b80630dbe671f146100b957806326121ff0146100d75780634df7e3d0146100f55780636970a924146101135780637323febe14610131578063b8c9d36514610161575b600080fd5b6100c1610257565b6040516100ce9190610371565b60405180910390f35b6100df61026a565b6040516100ec91906103a5565b60405180910390f35b6100fd610270565b60405161010a91906103dd565b60405180910390f35b61011b610284565b6040516101289190610371565b60405180910390f35b61014b60048036038101906101469190610429565b610297565b60405161015891906103a5565b60405180910390f35b6101696102af565b60405161017691906103a5565b60405180910390f35b6101876102b5565b6040516101949190610371565b60405180910390f35b6101a56102c8565b6040516101b29190610497565b60405180910390f35b6101d560048036038101906101d091906104de565b6102ec565b6040516101e291906103a5565b60405180910390f35b6101f3610304565b6040516102009190610371565b60405180910390f35b610223600480360381019061021e9190610429565b610317565b60405161023091906103a5565b60405180910390f35b61024161033b565b60405161024e919061052e565b60405180910390f35b600360009054906101000a900460ff1681565b60045481565b600360019054906101000a900461ffff1681565b600560029054906101000a900460ff1681565b60006020528060005260406000206000915090505481565b60065481565b600560019054906101000a900460ff1681565b60038054906101000a900473ffffffffffffffffffffffffffffffffffffffff1681565b60016020528060005260406000206000915090505481565b600560009054906101000a900460ff1681565b6002818154811061032757600080fd5b906000526020600020016000915090505481565b600360189054906101000a900467ffffffffffffffff1681565b600060ff82169050919050565b61036b81610355565b82525050565b60006020820190506103866000830184610362565b92915050565b6000819050919050565b61039f8161038c565b82525050565b60006020820190506103ba6000830184610396565b92915050565b600061ffff82169050919050565b6103d7816103c0565b82525050565b60006020820190506103f260008301846103ce565b92915050565b600080fd5b6104068161038c565b811461041157600080fd5b50565b600081359050610423816103fd565b92915050565b60006020828403121561043f5761043e6103f8565b5b600061044d84828501610414565b91505092915050565b600073ffffffffffffffffffffffffffffffffffffffff82169050919050565b600061048182610456565b9050919050565b61049181610476565b82525050565b60006020820190506104ac6000830184610488565b92915050565b6104bb81610476565b81146104c657600080fd5b50565b6000813590506104d8816104b2565b92915050565b6000602082840312156104f4576104f36103f8565b5b6000610502848285016104c9565b91505092915050565b600067ffffffffffffffff82169050919050565b6105288161050b565b82525050565b6000602082019050610543600083018461051f565b9291505056fea2646970667358221220c82fa13405fc4cecf67632efb40d0dcb78d814db96754f16a4d51aa3f2451bed64736f6c634300080b0033",
  "immutableReferences": {},
  "source": "// SPDX-License-Identifier: MIT\npragma solidity >=0.4.22 <0.9.0;\n\ncontract Storage {\n\n  // keccak256(key . slot)\n  mapping(uint => uint) public aa; // cream un mapping care are key uint si val tot uint // a map will take a hole memory slot // stored in slot 0\n  mapping(address => uint) public bb; // stored in slot 1\n\n  // keccak256(slot) + index of the item pt a primi val din idx\n  uint[] public cc; // cream un dynamic arr // o sa primeasca un singur slot in storage // stored in slot 2\n\n  // we will write the maximum of bytes each datatype can have\n  uint8 public a = 7; // 1byte\n  uint16 public b = 10; // 2bytes\n  address public c = 0x96A09C03c69aB2cB063f2d94Ec98341E6a0C36C6; // 20bytes\n  bool d = true; // 1byte\n  uint64 public e = 15; // 8bytes\n  // total 32bytes, all values will be stored in slot 3\n\n  uint256 public f = 200; // 32bytes // stored in slot 4\n  uint8 public g = 40; // 1byte // stored in slot 5\n  uint8 public g1 = 40; // 1byte // stored in slot 5\n  uint8 public g2 = 40; // 1byte // stored in slot 5\n  uint256 public h = 789; // 32bytes // stored in slot 6 // you can see that ordering your data matters, slot 2 is not full\n\n  constructor() {\n    cc.push(1); // ca si in js, folosim push pt a impinge o val in arr\n    cc.push(10);\n    cc.push(100);\n\n    aa[2] = 4;\n    aa[3] = 10;\n\n    bb[0x96A09C03c69aB2cB063f2d94Ec98341E6a0C36C6] = 100;\n  } // a constructor is called as you deploy your contract, in the deploynd phase\n}",
  "sourcePath": "/home/lucky/Desktop/Projects/info/13 blockchain/00 Solidity & Ethereum in React/projects/faucet/contracts/Storage.sol",
  "compiler": {
    "name": "solc",
    "version": "0.8.11+commit.d7f03943.Emscripten.clang"
  },
  "schemaVersion": "3.4.4",
  "updatedAt": "2022-03-17T15:53:14.649Z",
  "networkType": "ethereum",
  "devdoc": {
    "kind": "dev",
    "methods": {},
    "version": 1
  },
  "userdoc": {
    "kind": "user",
    "methods": {},
    "version": 1
  }
}