{
  "contractName": "Test",
  "abi": [
    {
      "inputs": [
        {
          "internalType": "uint256",
          "name": "testNum",
          "type": "uint256"
        }
      ],
      "name": "test",
      "outputs": [
        {
          "internalType": "uint256",
          "name": "",
          "type": "uint256"
        }
      ],
      "stateMutability": "pure",
      "type": "function"
    }
  ],
  "bytecode": "0x608060405234801561001057600080fd5b50610165806100206000396000f3fe608060405234801561001057600080fd5b506004361061002b5760003560e01c806329e99f0714610030575b600080fd5b61004a600480360381019061004591906100d8565b610060565b6040516100579190610114565b60405180910390f35b60006004604051505060006040518060600160405280600160ff168152602001600260ff168152602001600360ff16815250905082915050919050565b600080fd5b6000819050919050565b6100b5816100a2565b81146100c057600080fd5b50565b6000813590506100d2816100ac565b92915050565b6000602082840312156100ee576100ed61009d565b5b60006100fc848285016100c3565b91505092915050565b61010e816100a2565b82525050565b60006020820190506101296000830184610105565b9291505056fea2646970667358221220604c80ae8f2de8ecdd55667a3fd715bfabd73460d4ee5c39e9fc6faf394da32864736f6c634300080b0033",
  "immutableReferences": {},
  "source": "// SPDX-License-Identifier: MIT\npragma solidity >=0.4.22 <0.9.0;\n\ncontract Test {\n  function test(uint testNum) external pure returns(uint) {\n    assembly {\n      let _num := 4 // asa cream var in asembly, cream o var si ii adaugam num 4\n      let _fmp := mload(0x40) // mload pt a incarca ceva din memorie din pozitia 0x40 \n    } // folosim asta pt a putea scrie low lvl instructions in assembly in contractul sol // de obicei nu tre folosit // il folosim pt a vedea cum este alocata memoria\n\n    uint8[3] memory items = [1,2,3]; // stocam 3 num de 8byts in memorie\n\n    return testNum;\n  }\n}",
  "sourcePath": "/home/lucky/Desktop/Projects/info/13 blockchain/00 Solidity & Ethereum in React/projects/faucet/contracts/Test.sol",
  "compiler": {
    "name": "solc",
    "version": "0.8.11+commit.d7f03943.Emscripten.clang"
  },
  "schemaVersion": "3.4.4",
  "updatedAt": "2022-03-17T14:39:25.509Z",
  "devdoc": {
    "kind": "dev",
    "methods": {},
    "version": 1
  },
  "userdoc": {
    "kind": "user",
    "methods": {},
    "version": 1
  }
}